:1000000010C02AC09DC028C027C026C0B4C024C0CC
:1000100023C022C021C020C01FC0C3C01DC01CC03F
:100020001BC011241FBECFE5D2E0DEBFCDBF10E064
:10003000A0E6B0E0EAE1F4E002C005900D92A63639
:10004000B107D9F720E0A6E6B0E001C01D92AE36B8
:10005000B207E1F79DD1DFC1D3CF6EE580E0C8D014
:1000600083EF91E00197F1F700C0000008956CE57F
:1000700080E0BED00895B7D087EA91E60197F1F706
:1000800000C00000F4DF60E081E0B2D063E083E014
:10009000AFD060E084E0ACD062E085E0A9D062E25D
:1000A00086E0A6D045E060E670E080E1B2D0089539
:1000B0001F93CF93DF93D82FC92F162FCEDF612F39
:1000C0008D2F9C2F09D1DF91CF911F91089560E76B
:1000D00087E08ED00895F8948AB3886D8ABB8BB37D
:1000E00082688BBB88B3876088BB81E082BB8AB79C
:1000F00080618ABF8BB780618BBF1FBC8DE08EBDD6
:1001000012BC80ED93E09BBD8ABD619A86B18C687C
:1001100086B91C9A0A9A81E287B980B1866080B953
:1001200088E199E20FB6F894A89581BD0FBE91BD04
:1001300078940895A0DF64E087E690E0B9DF089541
:100140002F932FB72F938F939F9389B3909166002E
:10015000282F29278093660092B3922390FF05C031
:1001600080FD03C081E080936C009F918F912F915F
:100170002FBF2F9118958F938FB78F9380916D001C
:100180008F5F80936D0080916D008370833029F0C4
:10019000369A8F918FBF8F91189581E080936B0075
:1001A000F8CF1F921FB61F9211248F9380916D007C
:1001B0008370813071F0823089F0811105C085B182
:1001C00080936A0082E887B98F911F901FBE1F90AD
:1001D000189585B18093690082EAF5CF85B1809347
:1001E000680081E2F0CFBBD0D39AD098F7D00895C1
:1001F000CF93DF93C82FD62FEDD08C2F8F718062D5
:10020000B5D0C82F8D2FB2D0E7D08C2FDF91CF91F2
:100210000895EF92FF920F931F93CF93DF93C82F10
:10022000E62E172F042FD6D08C2F8F7180629ED090
:10023000F82ECE2DD12F0C0F1D2F111DC017D10759
:1002400019F0899193D0FACFC7D08F2DCDB7DEB7F3
:10025000E6E0D2C0CF93C82FBDD08C2F8F7186D04F
:1002600080E084D0C82FB8D08C2FCF910895792FFB
:10027000462F682F8AE0CDDF0895792F462F682F0B
:1002800080E1C7DF0895DB9A0895A4D081EE6ED097
:10029000A3D008959FD082EE69D09ED00895CF93C9
:1002A00099D080E663D080E061D0C82F95D08C2FA4
:1002B000CF910895CF938ED08FEF58D0C82F8CD088
:1002C0008C2FCF910895F6DF80958170089587E196
:1002D000C1DF809581700895FF920F931F93CF9394
:1002E000DF93F82E192F062F79D074D080EA3ED0F4
:1002F00080FD0BC0CF2DD12F0C0F1D2F111DC0174E
:10030000D10749F0899132D0FACF66D080E0CDB7DD
:10031000DEB7E5E072C060D0DB9A83E08A95F1F742
:1003200000C05CD081E0F3CFFF920F931F93CF9377
:10033000DF93F82E192F062F4DD081E617D0CF2D41
:10034000D12F0C0F1D2F111DC017D10719F0899146
:100350000DD0FACF41D0CDB7DEB7E5E04EC08AB3BD
:10036000806D8ABB8BB3806A8BBB0895982FDC9815
:1003700028E080E097FF0AC0DE9A990F880FDC9A88
:10038000CD998160DC982150A9F70895DE98F5CFCA
:10039000A2DE89B38093660087E380936700A89507
:1003A00080916B00882319F010926B00C3DE80915E
:1003B0006C00882321F010926C0089DE58DE85B72E
:1003C000877E85BF85B7806285BF889585B78F7D1D
:1003D00085BFE5CFDF980895DF9A0895DB980895EB
:1003E0002A88398848885F846E847D848C849B84C5
:1003F000AA84B984C884DF80EE80FD800C811B81D3
:10040000AA81B981CE0FD11D0FB6F894DEBF0FBE01
:0A041000CDBFED010895F894FFCF71
:06041A0052616E676500EF
:00000001FF
