:1000000010C028C0A9C026C025C024C0C0C022C0BE
:1000100021C0E9C01FC01EC01DC0F6C01BC01AC051
:1000200019C011241FBECFEDCDBF10E0A0E6B0E097
:10003000E6E4F6E002C005900D92A038B107D9F7CA
:1000400020E0A0E8B0E001C01D92A739B207E1F7B7
:10005000DFD1F7C2D5CF6EE380E006D183EF91E028
:100060000197F1F700C000006FE380E0FDD0DB9A5C
:100070009BE29A95F1F7000008956CE380E0F4D0DC
:1000800008958ED108951F93CF93DF93D82FC92F52
:10009000162FE1DF612F8D2F9C2F5AD1DF91CF9149
:1000A0001F91089560E787E0DFD00895D8D087EAF0
:1000B00091E60197F1F700C00000DFDF60E081E02A
:1000C000D3D061E082E0D0D063E083E0CDD060E0C7
:1000D00084E0CAD062E085E0C7D062E286E0C4D0A6
:1000E000E1DF45E060E670E08AE0CFD064E081E1E6
:1000F000BBD0B1DF0895F8948AB38A6D8ABBDF9ACA
:1001000087B3876087BB81E082BB8AB780618ABF83
:100110008BB780618BBF82E080BF84E083BF81E4C6
:1001200086BF89B7826089BF1FBC8CE08EBD82E428
:100130009FE09BBD8ABD619A019A86B18B6886B9A2
:100140001C9A0A9A88E199E20FB6F894A89581BDA5
:100150000FBE91BD789408952F932FB72F938F934F
:100160009F9389B390918100282F29278093810044
:1001700092B3922390FF05C080FD03C081E080937D
:1001800096009F918F912F912FBF2F9118958F934C
:100190008FB78F939F93809194008F5F809394008B
:1001A00080918C0090918D00892B49F080918C007A
:1001B00090918D00019790938D0080938C00809199
:1001C0008E0090918F00009749F080918E00909161
:1001D0008F00019790938F0080938E009F918F9155
:1001E0008FBF8F9118958F938FB78F93369A809189
:1001F0008000882329F080918000815080938000C6
:100200008F918FBF8F9118958F938FB78F939F93F7
:100210008091820080FD1EC085B190918400981766
:1002200089F091E0909395008093840082EA87B9E9
:10023000809182008F5F809382009F918F918FBF0A
:100240008F91189580919500813081F782E080939D
:100250009500ECCF85B18093830082E0E8CFBCD0DD
:10026000D39AD098D6D10895CF93DF93C82FD62FA5
:10027000CCD18C2F8F718062B6D0C82F8D2FB3D088
:10028000C6D18C2FDF91CF910895EF92FF920F93FB
:100290001F93CF93DF93C82FE62E172F042FB5D1CE
:1002A0008C2F8F7180629FD0F82ECE2DD12F0C0F06
:1002B0001D2F111DC017D10719F0899194D0FACFC5
:1002C000A6D18F2DCDB7DD27E6E0B1C1CF93C82FE2
:1002D0009CD18C2F8F7187D080E085D0C82F97D18B
:1002E0008C2FCF910895792F462F682F8AE0CDDF8C
:1002F0000895792F462F682F80E1C7DF0895DB9A94
:10030000089583D181EE6FD082D108957ED182EE9F
:100310006AD07DD10895CF9378D180E664D080E013
:1003200062D0C82F74D18C2FCF910895CF936DD107
:100330008FEF59D0C82F6BD18C2FCF910895F6DF56
:1003400080958170089587E1C1DF8095817008955F
:10035000FF920F931F93CF93DF93F82E192F062F41
:1003600058D153D180EA3FD080FD0BC0CF2DD12F83
:100370000C0F1D2F111DC017D10749F0899133D0E3
:10038000FACF45D180E0CDB7DD27E5E051C13FD1BF
:10039000DB9A83E08A95F1F700C03BD181E0F3CF8F
:1003A000FF920F931F93CF93DF93F82E192F062FF1
:1003B0002CD181E618D0CF2DD12F0C0F1D2F111D60
:1003C000C017D10721F08FEF0ED08993F9CF1FD13D
:1003D000CDB7DD27E5E02CC18AB3806D8ABB8BB336
:1003E000806A8BBB0895982FDC9828E080E097FF07
:1003F0000AC0DE9A990F880FDC9ACD998160DC984B
:100400002150A9F70895DE98F5CFD998C29808959C
:1004100072DE81E080938A0093E09093860090934F
:10042000870080938B0010928900109288008AEFD9
:100430008093850088B38C7F88BBE7DF89B3809386
:10044000810034DEC8E7D0E0FF24F39485E0D82EA5
:1004500093E0E92E00EB14E022E0C22EA8958091F3
:1004600096008823F9F0109296001CDE64E080E983
:1004700090E007DED0938D00C0938C00D0938F0066
:10048000C0938E0080918A00882339F08091920079
:10049000803708F480C0D092860080918B00811153
:1004A000F092880080918C0090918D00892B21F42E
:1004B000E0928600F0928A0080918E0090918F00E9
:1004C000892B21F410928800F0928B008091950086
:1004D000823009F045C01092950080918500E7E7D1
:1004E000F0E050E040E030918400CA0121912317F0
:1004F00030F04F5F5F4F0897B1F788E090E03091A0
:100500008500231769F1FC01E259FF4F30813093D8
:1005100086008B599F4FFC018081809388009091C9
:10052000860081E0933009F080E080938A0090910A
:10053000880081E0911180E080938B0080918A0097
:10054000811104C010938D0000938C0080918B006A
:10055000811104C010938F0000938E0020938500BA
:100560009091870080918600981719F18091800002
:1005700081111FC080918700833089F084508230C0
:10058000C0F488B38C7F88BB80918600833091F55E
:10059000E09287000EC084E0809386007ECF809139
:1005A0008600843021F5C098C19A8091860080939E
:1005B00087009091890080918800981769F0809158
:1005C000880080938900809189008130C1F0823059
:1005D000C9F0811101C019DF85B7877E85BF85B756
:1005E000806285BF889585B78F7D85BF37CFC198DD
:1005F000C09ADBCFC0928000E0928700C9CFD99A21
:10060000C298EACFD99AC29AE7CFDF980895DF9AC5
:100610000895DB9808952A88398848885F846E8415
:100620007D848C849B84AA84B984C884DF80EE8016
:10063000FD800C811B81AA81D981CE0FCDBFCA2F2D
:060640000895F894FFCFBD
:1006460052616E67650002010002010002010303A8
:1006560003050505040404FADEC8A6998E7D756FA8
:00000001FF
